{
  "address": "0x27f7716f8ad3423Af195E67C715BAAc030e4A955",
  "abi": [
    {
      "inputs": [
        {
          "internalType": "address",
          "name": "_layerZeroEndpoint",
          "type": "address"
        }
      ],
      "stateMutability": "nonpayable",
      "type": "constructor"
    },
    {
      "anonymous": false,
      "inputs": [
        {
          "indexed": true,
          "internalType": "address",
          "name": "owner",
          "type": "address"
        },
        {
          "indexed": true,
          "internalType": "address",
          "name": "spender",
          "type": "address"
        },
        {
          "indexed": false,
          "internalType": "uint256",
          "name": "value",
          "type": "uint256"
        }
      ],
      "name": "Approval",
      "type": "event"
    },
    {
      "anonymous": false,
      "inputs": [
        {
          "indexed": true,
          "internalType": "uint16",
          "name": "_srcChainId",
          "type": "uint16"
        },
        {
          "indexed": false,
          "internalType": "bytes",
          "name": "_srcAddress",
          "type": "bytes"
        },
        {
          "indexed": false,
          "internalType": "uint64",
          "name": "_nonce",
          "type": "uint64"
        },
        {
          "indexed": false,
          "internalType": "bytes32",
          "name": "_hash",
          "type": "bytes32"
        }
      ],
      "name": "CallOFTReceivedSuccess",
      "type": "event"
    },
    {
      "anonymous": false,
      "inputs": [
        {
          "indexed": false,
          "internalType": "uint16",
          "name": "_srcChainId",
          "type": "uint16"
        },
        {
          "indexed": false,
          "internalType": "bytes",
          "name": "_srcAddress",
          "type": "bytes"
        },
        {
          "indexed": false,
          "internalType": "uint64",
          "name": "_nonce",
          "type": "uint64"
        },
        {
          "indexed": false,
          "internalType": "bytes",
          "name": "_payload",
          "type": "bytes"
        },
        {
          "indexed": false,
          "internalType": "bytes",
          "name": "_reason",
          "type": "bytes"
        }
      ],
      "name": "MessageFailed",
      "type": "event"
    },
    {
      "anonymous": false,
      "inputs": [
        {
          "indexed": false,
          "internalType": "address",
          "name": "_address",
          "type": "address"
        }
      ],
      "name": "NonContractAddress",
      "type": "event"
    },
    {
      "anonymous": false,
      "inputs": [
        {
          "indexed": true,
          "internalType": "address",
          "name": "previousOwner",
          "type": "address"
        },
        {
          "indexed": true,
          "internalType": "address",
          "name": "newOwner",
          "type": "address"
        }
      ],
      "name": "OwnershipTransferred",
      "type": "event"
    },
    {
      "anonymous": false,
      "inputs": [
        {
          "indexed": true,
          "internalType": "uint16",
          "name": "_srcChainId",
          "type": "uint16"
        },
        {
          "indexed": true,
          "internalType": "address",
          "name": "_to",
          "type": "address"
        },
        {
          "indexed": false,
          "internalType": "uint256",
          "name": "_amount",
          "type": "uint256"
        }
      ],
      "name": "ReceiveFromChain",
      "type": "event"
    },
    {
      "anonymous": false,
      "inputs": [
        {
          "indexed": false,
          "internalType": "uint16",
          "name": "_srcChainId",
          "type": "uint16"
        },
        {
          "indexed": false,
          "internalType": "bytes",
          "name": "_srcAddress",
          "type": "bytes"
        },
        {
          "indexed": false,
          "internalType": "uint64",
          "name": "_nonce",
          "type": "uint64"
        },
        {
          "indexed": false,
          "internalType": "bytes32",
          "name": "_payloadHash",
          "type": "bytes32"
        }
      ],
      "name": "RetryMessageSuccess",
      "type": "event"
    },
    {
      "anonymous": false,
      "inputs": [
        {
          "indexed": true,
          "internalType": "uint16",
          "name": "_dstChainId",
          "type": "uint16"
        },
        {
          "indexed": true,
          "internalType": "address",
          "name": "_from",
          "type": "address"
        },
        {
          "indexed": true,
          "internalType": "bytes32",
          "name": "_toAddress",
          "type": "bytes32"
        },
        {
          "indexed": false,
          "internalType": "uint256",
          "name": "_amount",
          "type": "uint256"
        }
      ],
      "name": "SendToChain",
      "type": "event"
    },
    {
      "anonymous": false,
      "inputs": [
        {
          "indexed": false,
          "internalType": "uint16",
          "name": "_dstChainId",
          "type": "uint16"
        },
        {
          "indexed": false,
          "internalType": "uint16",
          "name": "_type",
          "type": "uint16"
        },
        {
          "indexed": false,
          "internalType": "uint256",
          "name": "_minDstGas",
          "type": "uint256"
        }
      ],
      "name": "SetMinDstGas",
      "type": "event"
    },
    {
      "anonymous": false,
      "inputs": [
        {
          "indexed": false,
          "internalType": "address",
          "name": "precrime",
          "type": "address"
        }
      ],
      "name": "SetPrecrime",
      "type": "event"
    },
    {
      "anonymous": false,
      "inputs": [
        {
          "indexed": false,
          "internalType": "uint16",
          "name": "_remoteChainId",
          "type": "uint16"
        },
        {
          "indexed": false,
          "internalType": "bytes",
          "name": "_path",
          "type": "bytes"
        }
      ],
      "name": "SetTrustedRemote",
      "type": "event"
    },
    {
      "anonymous": false,
      "inputs": [
        {
          "indexed": false,
          "internalType": "uint16",
          "name": "_remoteChainId",
          "type": "uint16"
        },
        {
          "indexed": false,
          "internalType": "bytes",
          "name": "_remoteAddress",
          "type": "bytes"
        }
      ],
      "name": "SetTrustedRemoteAddress",
      "type": "event"
    },
    {
      "anonymous": false,
      "inputs": [
        {
          "indexed": false,
          "internalType": "bool",
          "name": "_useCustomAdapterParams",
          "type": "bool"
        }
      ],
      "name": "SetUseCustomAdapterParams",
      "type": "event"
    },
    {
      "anonymous": false,
      "inputs": [
        {
          "indexed": true,
          "internalType": "address",
          "name": "from",
          "type": "address"
        },
        {
          "indexed": true,
          "internalType": "address",
          "name": "to",
          "type": "address"
        },
        {
          "indexed": false,
          "internalType": "uint256",
          "name": "value",
          "type": "uint256"
        }
      ],
      "name": "Transfer",
      "type": "event"
    },
    {
      "inputs": [],
      "name": "DEFAULT_PAYLOAD_SIZE_LIMIT",
      "outputs": [
        {
          "internalType": "uint256",
          "name": "",
          "type": "uint256"
        }
      ],
      "stateMutability": "view",
      "type": "function"
    },
    {
      "inputs": [],
      "name": "NO_EXTRA_GAS",
      "outputs": [
        {
          "internalType": "uint256",
          "name": "",
          "type": "uint256"
        }
      ],
      "stateMutability": "view",
      "type": "function"
    },
    {
      "inputs": [],
      "name": "PT_SEND",
      "outputs": [
        {
          "internalType": "uint8",
          "name": "",
          "type": "uint8"
        }
      ],
      "stateMutability": "view",
      "type": "function"
    },
    {
      "inputs": [],
      "name": "PT_SEND_AND_CALL",
      "outputs": [
        {
          "internalType": "uint8",
          "name": "",
          "type": "uint8"
        }
      ],
      "stateMutability": "view",
      "type": "function"
    },
    {
      "inputs": [
        {
          "internalType": "address",
          "name": "_address",
          "type": "address"
        },
        {
          "internalType": "bool",
          "name": "_isOwner",
          "type": "bool"
        }
      ],
      "name": "addBlackList",
      "outputs": [],
      "stateMutability": "nonpayable",
      "type": "function"
    },
    {
      "inputs": [
        {
          "internalType": "address",
          "name": "owner",
          "type": "address"
        },
        {
          "internalType": "address",
          "name": "spender",
          "type": "address"
        }
      ],
      "name": "allowance",
      "outputs": [
        {
          "internalType": "uint256",
          "name": "",
          "type": "uint256"
        }
      ],
      "stateMutability": "view",
      "type": "function"
    },
    {
      "inputs": [
        {
          "internalType": "address",
          "name": "spender",
          "type": "address"
        },
        {
          "internalType": "uint256",
          "name": "amount",
          "type": "uint256"
        }
      ],
      "name": "approve",
      "outputs": [
        {
          "internalType": "bool",
          "name": "",
          "type": "bool"
        }
      ],
      "stateMutability": "nonpayable",
      "type": "function"
    },
    {
      "inputs": [
        {
          "internalType": "address",
          "name": "account",
          "type": "address"
        }
      ],
      "name": "balanceOf",
      "outputs": [
        {
          "internalType": "uint256",
          "name": "",
          "type": "uint256"
        }
      ],
      "stateMutability": "view",
      "type": "function"
    },
    {
      "inputs": [
        {
          "internalType": "uint256",
          "name": "value",
          "type": "uint256"
        }
      ],
      "name": "burn",
      "outputs": [],
      "stateMutability": "nonpayable",
      "type": "function"
    },
    {
      "inputs": [
        {
          "internalType": "uint16",
          "name": "_srcChainId",
          "type": "uint16"
        },
        {
          "internalType": "bytes",
          "name": "_srcAddress",
          "type": "bytes"
        },
        {
          "internalType": "uint64",
          "name": "_nonce",
          "type": "uint64"
        },
        {
          "internalType": "bytes32",
          "name": "_from",
          "type": "bytes32"
        },
        {
          "internalType": "address",
          "name": "_to",
          "type": "address"
        },
        {
          "internalType": "uint256",
          "name": "_amount",
          "type": "uint256"
        },
        {
          "internalType": "bytes",
          "name": "_payload",
          "type": "bytes"
        },
        {
          "internalType": "uint256",
          "name": "_gasForCall",
          "type": "uint256"
        }
      ],
      "name": "callOnOFTReceived",
      "outputs": [],
      "stateMutability": "nonpayable",
      "type": "function"
    },
    {
      "inputs": [],
      "name": "circulatingSupply",
      "outputs": [
        {
          "internalType": "uint256",
          "name": "",
          "type": "uint256"
        }
      ],
      "stateMutability": "view",
      "type": "function"
    },
    {
      "inputs": [
        {
          "internalType": "uint16",
          "name": "",
          "type": "uint16"
        },
        {
          "internalType": "bytes",
          "name": "",
          "type": "bytes"
        },
        {
          "internalType": "uint64",
          "name": "",
          "type": "uint64"
        }
      ],
      "name": "creditedPackets",
      "outputs": [
        {
          "internalType": "bool",
          "name": "",
          "type": "bool"
        }
      ],
      "stateMutability": "view",
      "type": "function"
    },
    {
      "inputs": [],
      "name": "decimals",
      "outputs": [
        {
          "internalType": "uint8",
          "name": "",
          "type": "uint8"
        }
      ],
      "stateMutability": "view",
      "type": "function"
    },
    {
      "inputs": [
        {
          "internalType": "address",
          "name": "spender",
          "type": "address"
        },
        {
          "internalType": "uint256",
          "name": "subtractedValue",
          "type": "uint256"
        }
      ],
      "name": "decreaseAllowance",
      "outputs": [
        {
          "internalType": "bool",
          "name": "",
          "type": "bool"
        }
      ],
      "stateMutability": "nonpayable",
      "type": "function"
    },
    {
      "inputs": [
        {
          "internalType": "uint16",
          "name": "_dstChainId",
          "type": "uint16"
        },
        {
          "internalType": "bytes32",
          "name": "_toAddress",
          "type": "bytes32"
        },
        {
          "internalType": "uint256",
          "name": "_amount",
          "type": "uint256"
        },
        {
          "internalType": "bytes",
          "name": "_payload",
          "type": "bytes"
        },
        {
          "internalType": "uint64",
          "name": "_dstGasForCall",
          "type": "uint64"
        },
        {
          "internalType": "bool",
          "name": "_useZro",
          "type": "bool"
        },
        {
          "internalType": "bytes",
          "name": "_adapterParams",
          "type": "bytes"
        }
      ],
      "name": "estimateSendAndCallFee",
      "outputs": [
        {
          "internalType": "uint256",
          "name": "nativeFee",
          "type": "uint256"
        },
        {
          "internalType": "uint256",
          "name": "zroFee",
          "type": "uint256"
        }
      ],
      "stateMutability": "view",
      "type": "function"
    },
    {
      "inputs": [
        {
          "internalType": "uint16",
          "name": "_dstChainId",
          "type": "uint16"
        },
        {
          "internalType": "bytes32",
          "name": "_toAddress",
          "type": "bytes32"
        },
        {
          "internalType": "uint256",
          "name": "_amount",
          "type": "uint256"
        },
        {
          "internalType": "bool",
          "name": "_useZro",
          "type": "bool"
        },
        {
          "internalType": "bytes",
          "name": "_adapterParams",
          "type": "bytes"
        }
      ],
      "name": "estimateSendFee",
      "outputs": [
        {
          "internalType": "uint256",
          "name": "nativeFee",
          "type": "uint256"
        },
        {
          "internalType": "uint256",
          "name": "zroFee",
          "type": "uint256"
        }
      ],
      "stateMutability": "view",
      "type": "function"
    },
    {
      "inputs": [
        {
          "internalType": "uint16",
          "name": "",
          "type": "uint16"
        },
        {
          "internalType": "bytes",
          "name": "",
          "type": "bytes"
        },
        {
          "internalType": "uint64",
          "name": "",
          "type": "uint64"
        }
      ],
      "name": "failedMessages",
      "outputs": [
        {
          "internalType": "bytes32",
          "name": "",
          "type": "bytes32"
        }
      ],
      "stateMutability": "view",
      "type": "function"
    },
    {
      "inputs": [
        {
          "internalType": "uint16",
          "name": "_srcChainId",
          "type": "uint16"
        },
        {
          "internalType": "bytes",
          "name": "_srcAddress",
          "type": "bytes"
        }
      ],
      "name": "forceResumeReceive",
      "outputs": [],
      "stateMutability": "nonpayable",
      "type": "function"
    },
    {
      "inputs": [
        {
          "internalType": "uint16",
          "name": "_version",
          "type": "uint16"
        },
        {
          "internalType": "uint16",
          "name": "_chainId",
          "type": "uint16"
        },
        {
          "internalType": "address",
          "name": "",
          "type": "address"
        },
        {
          "internalType": "uint256",
          "name": "_configType",
          "type": "uint256"
        }
      ],
      "name": "getConfig",
      "outputs": [
        {
          "internalType": "bytes",
          "name": "",
          "type": "bytes"
        }
      ],
      "stateMutability": "view",
      "type": "function"
    },
    {
      "inputs": [
        {
          "internalType": "uint16",
          "name": "_remoteChainId",
          "type": "uint16"
        }
      ],
      "name": "getTrustedRemoteAddress",
      "outputs": [
        {
          "internalType": "bytes",
          "name": "",
          "type": "bytes"
        }
      ],
      "stateMutability": "view",
      "type": "function"
    },
    {
      "inputs": [
        {
          "internalType": "address",
          "name": "spender",
          "type": "address"
        },
        {
          "internalType": "uint256",
          "name": "addedValue",
          "type": "uint256"
        }
      ],
      "name": "increaseAllowance",
      "outputs": [
        {
          "internalType": "bool",
          "name": "",
          "type": "bool"
        }
      ],
      "stateMutability": "nonpayable",
      "type": "function"
    },
    {
      "inputs": [
        {
          "internalType": "uint16",
          "name": "_srcChainId",
          "type": "uint16"
        },
        {
          "internalType": "bytes",
          "name": "_srcAddress",
          "type": "bytes"
        }
      ],
      "name": "isTrustedRemote",
      "outputs": [
        {
          "internalType": "bool",
          "name": "",
          "type": "bool"
        }
      ],
      "stateMutability": "view",
      "type": "function"
    },
    {
      "inputs": [],
      "name": "lzEndpoint",
      "outputs": [
        {
          "internalType": "contract ILayerZeroEndpoint",
          "name": "",
          "type": "address"
        }
      ],
      "stateMutability": "view",
      "type": "function"
    },
    {
      "inputs": [
        {
          "internalType": "uint16",
          "name": "_srcChainId",
          "type": "uint16"
        },
        {
          "internalType": "bytes",
          "name": "_srcAddress",
          "type": "bytes"
        },
        {
          "internalType": "uint64",
          "name": "_nonce",
          "type": "uint64"
        },
        {
          "internalType": "bytes",
          "name": "_payload",
          "type": "bytes"
        }
      ],
      "name": "lzReceive",
      "outputs": [],
      "stateMutability": "nonpayable",
      "type": "function"
    },
    {
      "inputs": [
        {
          "internalType": "uint16",
          "name": "",
          "type": "uint16"
        },
        {
          "internalType": "uint16",
          "name": "",
          "type": "uint16"
        }
      ],
      "name": "minDstGasLookup",
      "outputs": [
        {
          "internalType": "uint256",
          "name": "",
          "type": "uint256"
        }
      ],
      "stateMutability": "view",
      "type": "function"
    },
    {
      "inputs": [
        {
          "internalType": "address",
          "name": "to",
          "type": "address"
        },
        {
          "internalType": "uint256",
          "name": "_amount",
          "type": "uint256"
        }
      ],
      "name": "mintTokens",
      "outputs": [],
      "stateMutability": "nonpayable",
      "type": "function"
    },
    {
      "inputs": [],
      "name": "name",
      "outputs": [
        {
          "internalType": "string",
          "name": "",
          "type": "string"
        }
      ],
      "stateMutability": "view",
      "type": "function"
    },
    {
      "inputs": [
        {
          "internalType": "uint16",
          "name": "_srcChainId",
          "type": "uint16"
        },
        {
          "internalType": "bytes",
          "name": "_srcAddress",
          "type": "bytes"
        },
        {
          "internalType": "uint64",
          "name": "_nonce",
          "type": "uint64"
        },
        {
          "internalType": "bytes",
          "name": "_payload",
          "type": "bytes"
        }
      ],
      "name": "nonblockingLzReceive",
      "outputs": [],
      "stateMutability": "nonpayable",
      "type": "function"
    },
    {
      "inputs": [],
      "name": "owner",
      "outputs": [
        {
          "internalType": "address",
          "name": "",
          "type": "address"
        }
      ],
      "stateMutability": "view",
      "type": "function"
    },
    {
      "inputs": [
        {
          "internalType": "uint16",
          "name": "",
          "type": "uint16"
        }
      ],
      "name": "payloadSizeLimitLookup",
      "outputs": [
        {
          "internalType": "uint256",
          "name": "",
          "type": "uint256"
        }
      ],
      "stateMutability": "view",
      "type": "function"
    },
    {
      "inputs": [],
      "name": "precrime",
      "outputs": [
        {
          "internalType": "address",
          "name": "",
          "type": "address"
        }
      ],
      "stateMutability": "view",
      "type": "function"
    },
    {
      "inputs": [],
      "name": "renounceOwnership",
      "outputs": [],
      "stateMutability": "nonpayable",
      "type": "function"
    },
    {
      "inputs": [
        {
          "internalType": "uint16",
          "name": "_srcChainId",
          "type": "uint16"
        },
        {
          "internalType": "bytes",
          "name": "_srcAddress",
          "type": "bytes"
        },
        {
          "internalType": "uint64",
          "name": "_nonce",
          "type": "uint64"
        },
        {
          "internalType": "bytes",
          "name": "_payload",
          "type": "bytes"
        }
      ],
      "name": "retryMessage",
      "outputs": [],
      "stateMutability": "payable",
      "type": "function"
    },
    {
      "inputs": [
        {
          "internalType": "address",
          "name": "_from",
          "type": "address"
        },
        {
          "internalType": "uint16",
          "name": "_dstChainId",
          "type": "uint16"
        },
        {
          "internalType": "bytes32",
          "name": "_toAddress",
          "type": "bytes32"
        },
        {
          "internalType": "uint256",
          "name": "_amount",
          "type": "uint256"
        },
        {
          "internalType": "bytes",
          "name": "_payload",
          "type": "bytes"
        },
        {
          "internalType": "uint64",
          "name": "_dstGasForCall",
          "type": "uint64"
        },
        {
          "components": [
            {
              "internalType": "address payable",
              "name": "refundAddress",
              "type": "address"
            },
            {
              "internalType": "address",
              "name": "zroPaymentAddress",
              "type": "address"
            },
            {
              "internalType": "bytes",
              "name": "adapterParams",
              "type": "bytes"
            }
          ],
          "internalType": "struct ICommonOFT.LzCallParams",
          "name": "_callParams",
          "type": "tuple"
        }
      ],
      "name": "sendAndCall",
      "outputs": [],
      "stateMutability": "payable",
      "type": "function"
    },
    {
      "inputs": [
        {
          "internalType": "address",
          "name": "_from",
          "type": "address"
        },
        {
          "internalType": "uint16",
          "name": "_dstChainId",
          "type": "uint16"
        },
        {
          "internalType": "bytes32",
          "name": "_toAddress",
          "type": "bytes32"
        },
        {
          "internalType": "uint256",
          "name": "_amount",
          "type": "uint256"
        },
        {
          "components": [
            {
              "internalType": "address payable",
              "name": "refundAddress",
              "type": "address"
            },
            {
              "internalType": "address",
              "name": "zroPaymentAddress",
              "type": "address"
            },
            {
              "internalType": "bytes",
              "name": "adapterParams",
              "type": "bytes"
            }
          ],
          "internalType": "struct ICommonOFT.LzCallParams",
          "name": "_callParams",
          "type": "tuple"
        }
      ],
      "name": "sendFrom",
      "outputs": [],
      "stateMutability": "payable",
      "type": "function"
    },
    {
      "inputs": [
        {
          "internalType": "uint16",
          "name": "_version",
          "type": "uint16"
        },
        {
          "internalType": "uint16",
          "name": "_chainId",
          "type": "uint16"
        },
        {
          "internalType": "uint256",
          "name": "_configType",
          "type": "uint256"
        },
        {
          "internalType": "bytes",
          "name": "_config",
          "type": "bytes"
        }
      ],
      "name": "setConfig",
      "outputs": [],
      "stateMutability": "nonpayable",
      "type": "function"
    },
    {
      "inputs": [
        {
          "internalType": "uint16",
          "name": "_dstChainId",
          "type": "uint16"
        },
        {
          "internalType": "uint16",
          "name": "_packetType",
          "type": "uint16"
        },
        {
          "internalType": "uint256",
          "name": "_minGas",
          "type": "uint256"
        }
      ],
      "name": "setMinDstGas",
      "outputs": [],
      "stateMutability": "nonpayable",
      "type": "function"
    },
    {
      "inputs": [
        {
          "internalType": "uint16",
          "name": "_dstChainId",
          "type": "uint16"
        },
        {
          "internalType": "uint256",
          "name": "_size",
          "type": "uint256"
        }
      ],
      "name": "setPayloadSizeLimit",
      "outputs": [],
      "stateMutability": "nonpayable",
      "type": "function"
    },
    {
      "inputs": [
        {
          "internalType": "address",
          "name": "_precrime",
          "type": "address"
        }
      ],
      "name": "setPrecrime",
      "outputs": [],
      "stateMutability": "nonpayable",
      "type": "function"
    },
    {
      "inputs": [
        {
          "internalType": "uint16",
          "name": "_version",
          "type": "uint16"
        }
      ],
      "name": "setReceiveVersion",
      "outputs": [],
      "stateMutability": "nonpayable",
      "type": "function"
    },
    {
      "inputs": [
        {
          "internalType": "uint16",
          "name": "_version",
          "type": "uint16"
        }
      ],
      "name": "setSendVersion",
      "outputs": [],
      "stateMutability": "nonpayable",
      "type": "function"
    },
    {
      "inputs": [
        {
          "internalType": "uint16",
          "name": "_remoteChainId",
          "type": "uint16"
        },
        {
          "internalType": "bytes",
          "name": "_path",
          "type": "bytes"
        }
      ],
      "name": "setTrustedRemote",
      "outputs": [],
      "stateMutability": "nonpayable",
      "type": "function"
    },
    {
      "inputs": [
        {
          "internalType": "uint16",
          "name": "_remoteChainId",
          "type": "uint16"
        },
        {
          "internalType": "bytes",
          "name": "_remoteAddress",
          "type": "bytes"
        }
      ],
      "name": "setTrustedRemoteAddress",
      "outputs": [],
      "stateMutability": "nonpayable",
      "type": "function"
    },
    {
      "inputs": [
        {
          "internalType": "bool",
          "name": "_useCustomAdapterParams",
          "type": "bool"
        }
      ],
      "name": "setUseCustomAdapterParams",
      "outputs": [],
      "stateMutability": "nonpayable",
      "type": "function"
    },
    {
      "inputs": [],
      "name": "sharedDecimals",
      "outputs": [
        {
          "internalType": "uint8",
          "name": "",
          "type": "uint8"
        }
      ],
      "stateMutability": "view",
      "type": "function"
    },
    {
      "inputs": [
        {
          "internalType": "bytes4",
          "name": "interfaceId",
          "type": "bytes4"
        }
      ],
      "name": "supportsInterface",
      "outputs": [
        {
          "internalType": "bool",
          "name": "",
          "type": "bool"
        }
      ],
      "stateMutability": "view",
      "type": "function"
    },
    {
      "inputs": [],
      "name": "symbol",
      "outputs": [
        {
          "internalType": "string",
          "name": "",
          "type": "string"
        }
      ],
      "stateMutability": "view",
      "type": "function"
    },
    {
      "inputs": [],
      "name": "token",
      "outputs": [
        {
          "internalType": "address",
          "name": "",
          "type": "address"
        }
      ],
      "stateMutability": "view",
      "type": "function"
    },
    {
      "inputs": [],
      "name": "totalSupply",
      "outputs": [
        {
          "internalType": "uint256",
          "name": "",
          "type": "uint256"
        }
      ],
      "stateMutability": "view",
      "type": "function"
    },
    {
      "inputs": [
        {
          "internalType": "address",
          "name": "to",
          "type": "address"
        },
        {
          "internalType": "uint256",
          "name": "amount",
          "type": "uint256"
        }
      ],
      "name": "transfer",
      "outputs": [
        {
          "internalType": "bool",
          "name": "",
          "type": "bool"
        }
      ],
      "stateMutability": "nonpayable",
      "type": "function"
    },
    {
      "inputs": [
        {
          "internalType": "address",
          "name": "from",
          "type": "address"
        },
        {
          "internalType": "address",
          "name": "to",
          "type": "address"
        },
        {
          "internalType": "uint256",
          "name": "amount",
          "type": "uint256"
        }
      ],
      "name": "transferFrom",
      "outputs": [
        {
          "internalType": "bool",
          "name": "",
          "type": "bool"
        }
      ],
      "stateMutability": "nonpayable",
      "type": "function"
    },
    {
      "inputs": [
        {
          "internalType": "address",
          "name": "newOwner",
          "type": "address"
        }
      ],
      "name": "transferOwnership",
      "outputs": [],
      "stateMutability": "nonpayable",
      "type": "function"
    },
    {
      "inputs": [
        {
          "internalType": "uint16",
          "name": "",
          "type": "uint16"
        }
      ],
      "name": "trustedRemoteLookup",
      "outputs": [
        {
          "internalType": "bytes",
          "name": "",
          "type": "bytes"
        }
      ],
      "stateMutability": "view",
      "type": "function"
    },
    {
      "inputs": [],
      "name": "useCustomAdapterParams",
      "outputs": [
        {
          "internalType": "bool",
          "name": "",
          "type": "bool"
        }
      ],
      "stateMutability": "view",
      "type": "function"
    }
  ],
  "transactionHash": "0x7fabc10a5a2c6b24ec234f63a8bc029e68cccd849631a2333dde128ab6e43f88",
  "args": [
    "0xf69186dfBa60DdB133E91E9A4B5673624293d8F8"
  ],
  "numDeployments": 1,
  "solcInputHash": "48f0b8eec248403742cb2f1c5867a1d7",
  "bytecode": "0x60e06040523480156200001157600080fd5b5060405162004c2a38038062004c2a833981016040819052620000349162000219565b604051806040016040528060098152602001684f4d4e49204d454d4560b81b815250604051806040016040528060048152602001634f4d4e4960e01b81525060088383838383818180806200009862000092620001c060201b60201c565b620001c4565b6001600160a01b0316608052505060ff1660a05250600b9050620000bd8382620002f0565b50600c620000cc8282620002f0565b5050506000620000e16200021460201b60201c565b90508060ff168360ff1611156200014e5760405162461bcd60e51b815260206004820152602760248201527f4f46543a20736861726564446563696d616c73206d757374206265203c3d20646044820152666563696d616c7360c81b606482015260840160405180910390fd5b6200015a8382620003d2565b6200016790600a620004f1565b60c0525050600d60205250507f81955a0a11e65eac625c29e8882660bae4e165a75d72780094acae8ece9a29ee8054600160ff199182168117909255336000908152604090208054909116909117905550620005029050565b3390565b600080546001600160a01b038381166001600160a01b0319831681178455604051919092169283917f8be0079c531659141344cd1fd0a4f28419497f9722a3daafe3b4186f6b6457e09190a35050565b601290565b6000602082840312156200022c57600080fd5b81516001600160a01b03811681146200024457600080fd5b9392505050565b634e487b7160e01b600052604160045260246000fd5b600181811c908216806200027657607f821691505b6020821081036200029757634e487b7160e01b600052602260045260246000fd5b50919050565b601f821115620002eb57600081815260208120601f850160051c81016020861015620002c65750805b601f850160051c820191505b81811015620002e757828155600101620002d2565b5050505b505050565b81516001600160401b038111156200030c576200030c6200024b565b62000324816200031d845462000261565b846200029d565b602080601f8311600181146200035c5760008415620003435750858301515b600019600386901b1c1916600185901b178555620002e7565b600085815260208120601f198616915b828110156200038d578886015182559484019460019091019084016200036c565b5085821015620003ac5787850151600019600388901b60f8161c191681555b5050505050600190811b01905550565b634e487b7160e01b600052601160045260246000fd5b60ff8281168282160390811115620003ee57620003ee620003bc565b92915050565b600181815b8085111562000435578160001904821115620004195762000419620003bc565b808516156200042757918102915b93841c9390800290620003f9565b509250929050565b6000826200044e57506001620003ee565b816200045d57506000620003ee565b81600181146200047657600281146200048157620004a1565b6001915050620003ee565b60ff841115620004955762000495620003bc565b50506001821b620003ee565b5060208310610133831016604e8410600b8410161715620004c6575081810a620003ee565b620004d28383620003f4565b8060001904821115620004e957620004e9620003bc565b029392505050565b60006200024460ff8416836200043d565b60805160a05160c0516146ab6200057f60003960008181612b1101528181612f0b01526131e7015260006106b101526000818161088b01528181610a7b01528181610d9301528181610e530152818161101d0152818161167a01528181611c9f015281816121af0152818161276d015261309e01526146ab6000f3fe6080604052600436106103345760003560e01c80638da5cb5b116101ab578063cbed8b9c116100f7578063eaffd49a11610095578063f0dda65c1161006f578063f0dda65c14610a05578063f2fde38b14610a25578063f5ecbdbc14610a45578063fc0c546a14610a6557600080fd5b8063eaffd49a146109ab578063eb8d72b7146109cb578063ed629c5c146109eb57600080fd5b8063df2a5b3b116100d1578063df2a5b3b14610936578063e4fb5fc114610956578063e6a20ae614610976578063eab45d9c1461098b57600080fd5b8063cbed8b9c146108e3578063d1deba1f14610903578063dd62ed3e1461091657600080fd5b8063a457c2d711610164578063a9059cbb1161013e578063a9059cbb14610859578063b353aaa714610879578063baf3292d146108ad578063c4461834146108cd57600080fd5b8063a457c2d7146107f9578063a4c51df514610819578063a6c3d1651461083957600080fd5b80638da5cb5b1461070b5780639358928b1461073d578063950c8a741461075257806395d89b41146107725780639bdb9812146107875780639f38369a146107d957600080fd5b80633f1f4fa411610285578063695ef6bf116102235780637533d788116101fd5780637533d7881461066c57806376203b481461068c578063857749b01461069f5780638cfd8f5c146106d357600080fd5b8063695ef6bf1461060e57806370a0823114610621578063715018a61461065757600080fd5b8063447705151161025f57806344770515146105755780634c42899a1461058a5780635b8c41e61461059f57806366ad5c8a146105ee57600080fd5b80633f1f4fa41461050857806342966c681461053557806342d65a8d1461055557600080fd5b806310ddb137116102f2578063313ce567116102cc578063313ce56714610471578063365260b41461049357806339509351146104c85780633d8b38f6146104e857600080fd5b806310ddb1371461041257806318160ddd1461043257806323b872dd1461045157600080fd5b80621d35671461033957806301ffc9a71461035b57806306fdde031461039057806307e0db17146103b2578063095ea7b3146103d25780630df37483146103f2575b600080fd5b34801561034557600080fd5b50610359610354366004613621565b610a78565b005b34801561036757600080fd5b5061037b6103763660046136b4565b610ca9565b60405190151581526020015b60405180910390f35b34801561039c57600080fd5b506103a5610ce0565b604051610387919061372e565b3480156103be57600080fd5b506103596103cd366004613741565b610d72565b3480156103de57600080fd5b5061037b6103ed366004613771565b610dfb565b3480156103fe57600080fd5b5061035961040d36600461379d565b610e13565b34801561041e57600080fd5b5061035961042d366004613741565b610e32565b34801561043e57600080fd5b50600a545b604051908152602001610387565b34801561045d57600080fd5b5061037b61046c3660046137b9565b610e8a565b34801561047d57600080fd5b5060125b60405160ff9091168152602001610387565b34801561049f57600080fd5b506104b36104ae36600461380a565b610eae565b60408051928352602083019190915201610387565b3480156104d457600080fd5b5061037b6104e3366004613771565b610f03565b3480156104f457600080fd5b5061037b61050336600461386f565b610f25565b34801561051457600080fd5b50610443610523366004613741565b60036020526000908152604090205481565b34801561054157600080fd5b506103596105503660046138c1565b610ff1565b34801561056157600080fd5b5061035961057036600461386f565b610ffe565b34801561058157600080fd5b50610443600081565b34801561059657600080fd5b50610481600081565b3480156105ab57600080fd5b506104436105ba366004613947565b6005602090815260009384526040808520845180860184018051928152908401958401959095209452929052825290205481565b3480156105fa57600080fd5b50610359610609366004613621565b611084565b61035961061c3660046139ff565b611160565b34801561062d57600080fd5b5061044361063c366004613a72565b6001600160a01b031660009081526008602052604090205490565b34801561066357600080fd5b506103596111cb565b34801561067857600080fd5b506103a5610687366004613741565b6111df565b61035961069a366004613a8f565b611279565b3480156106ab57600080fd5b506104817f000000000000000000000000000000000000000000000000000000000000000081565b3480156106df57600080fd5b506104436106ee366004613b41565b600260209081526000928352604080842090915290825290205481565b34801561071757600080fd5b506000546001600160a01b03165b6040516001600160a01b039091168152602001610387565b34801561074957600080fd5b50610443611328565b34801561075e57600080fd5b50600454610725906001600160a01b031681565b34801561077e57600080fd5b506103a5611338565b34801561079357600080fd5b5061037b6107a2366004613947565b6007602090815260009384526040808520845180860184018051928152908401958401959095209452929052825290205460ff1681565b3480156107e557600080fd5b506103a56107f4366004613741565b611347565b34801561080557600080fd5b5061037b610814366004613771565b61145d565b34801561082557600080fd5b506104b3610834366004613b74565b6114d8565b34801561084557600080fd5b5061035961085436600461386f565b611567565b34801561086557600080fd5b5061037b610874366004613771565b6115f0565b34801561088557600080fd5b506107257f000000000000000000000000000000000000000000000000000000000000000081565b3480156108b957600080fd5b506103596108c8366004613a72565b6115fe565b3480156108d957600080fd5b5061044361271081565b3480156108ef57600080fd5b506103596108fe366004613c2d565b61165b565b610359610911366004613621565b6116e5565b34801561092257600080fd5b50610443610931366004613c9b565b6118fb565b34801561094257600080fd5b50610359610951366004613cd4565b611926565b34801561096257600080fd5b50610359610971366004613d10565b6119d8565b34801561098257600080fd5b50610481600181565b34801561099757600080fd5b506103596109a6366004613d3c565b611a0b565b3480156109b757600080fd5b506103596109c6366004613d57565b611a54565b3480156109d757600080fd5b506103596109e636600461386f565b611b73565b3480156109f757600080fd5b5060065461037b9060ff1681565b348015610a1157600080fd5b50610359610a20366004613771565b611bcd565b348015610a3157600080fd5b50610359610a40366004613a72565b611bf8565b348015610a5157600080fd5b506103a5610a60366004613e1f565b611c6e565b348015610a7157600080fd5b5030610725565b337f00000000000000000000000000000000000000000000000000000000000000006001600160a01b031614610af55760405162461bcd60e51b815260206004820152601e60248201527f4c7a4170703a20696e76616c696420656e64706f696e742063616c6c6572000060448201526064015b60405180910390fd5b61ffff861660009081526001602052604081208054610b1390613e6c565b80601f0160208091040260200160405190810160405280929190818152602001828054610b3f90613e6c565b8015610b8c5780601f10610b6157610100808354040283529160200191610b8c565b820191906000526020600020905b815481529060010190602001808311610b6f57829003601f168201915b50505050509050805186869050148015610ba7575060008151115b8015610bcf575080516020820120604051610bc59088908890613ea0565b6040518091039020145b610c2a5760405162461bcd60e51b815260206004820152602660248201527f4c7a4170703a20696e76616c696420736f757263652073656e64696e6720636f6044820152651b9d1c9858dd60d21b6064820152608401610aec565b610ca08787878080601f01602080910402602001604051908101604052809392919081815260200183838082843760009201919091525050604080516020601f8a018190048102820181019092528881528a935091508890889081908401838280828437600092019190915250611d1f92505050565b50505050505050565b60006001600160e01b03198216631f7ecdf760e01b1480610cda57506301ffc9a760e01b6001600160e01b03198316145b92915050565b6060600b8054610cef90613e6c565b80601f0160208091040260200160405190810160405280929190818152602001828054610d1b90613e6c565b8015610d685780601f10610d3d57610100808354040283529160200191610d68565b820191906000526020600020905b815481529060010190602001808311610d4b57829003601f168201915b5050505050905090565b610d7a611d98565b6040516307e0db1760e01b815261ffff821660048201527f00000000000000000000000000000000000000000000000000000000000000006001600160a01b0316906307e0db17906024015b600060405180830381600087803b158015610de057600080fd5b505af1158015610df4573d6000803e3d6000fd5b5050505050565b600033610e09818585611df2565b5060019392505050565b610e1b611d98565b61ffff909116600090815260036020526040902055565b610e3a611d98565b6040516310ddb13760e01b815261ffff821660048201527f00000000000000000000000000000000000000000000000000000000000000006001600160a01b0316906310ddb13790602401610dc6565b600033610e98858285611f17565b610ea3858585611f91565b506001949350505050565b600080610ef48888888888888080601f01602080910402602001604051908101604052809392919081815260200183838082843760009201919091525061214792505050565b91509150965096945050505050565b600033610e09818585610f1683836118fb565b610f209190613ec6565b611df2565b61ffff831660009081526001602052604081208054829190610f4690613e6c565b80601f0160208091040260200160405190810160405280929190818152602001828054610f7290613e6c565b8015610fbf5780601f10610f9457610100808354040283529160200191610fbf565b820191906000526020600020905b815481529060010190602001808311610fa257829003601f168201915b505050505090508383604051610fd6929190613ea0565b60405180910390208180519060200120149150509392505050565b610ffb338261223b565b50565b611006611d98565b6040516342d65a8d60e01b81526001600160a01b037f000000000000000000000000000000000000000000000000000000000000000016906342d65a8d9061105690869086908690600401613f02565b600060405180830381600087803b15801561107057600080fd5b505af1158015610ca0573d6000803e3d6000fd5b3330146110e25760405162461bcd60e51b815260206004820152602660248201527f4e6f6e626c6f636b696e674c7a4170703a2063616c6c6572206d7573742062656044820152650204c7a4170760d41b6064820152608401610aec565b6111588686868080601f01602080910402602001604051908101604052809392919081815260200183838082843760009201919091525050604080516020601f89018190048102820181019092528781528993509150879087908190840183828082843760009201919091525061237892505050565b505050505050565b611158858585856111746020870187613a72565b6111846040880160208901613a72565b6111916040890189613f20565b8080601f0160208091040260200160405190810160405280939291908181526020018383808284376000920191909152506123ff92505050565b6111d3611d98565b6111dd60006124e7565b565b600160205260009081526040902080546111f890613e6c565b80601f016020809104026020016040519081016040528092919081815260200182805461122490613e6c565b80156112715780601f1061124657610100808354040283529160200191611271565b820191906000526020600020905b81548152906001019060200180831161125457829003601f168201915b505050505081565b61131d8888888888888080601f0160208091040260200160405190810160405280939291908181526020018383808284376000920191909152508a92506112c69150506020890189613a72565b6112d660408a0160208b01613a72565b6112e360408b018b613f20565b8080601f01602080910402602001604051908101604052809392919081815260200183838082843760009201919091525061253792505050565b505050505050505050565b6000611333600a5490565b905090565b6060600c8054610cef90613e6c565b61ffff811660009081526001602052604081208054606092919061136a90613e6c565b80601f016020809104026020016040519081016040528092919081815260200182805461139690613e6c565b80156113e35780601f106113b8576101008083540402835291602001916113e3565b820191906000526020600020905b8154815290600101906020018083116113c657829003601f168201915b50505050509050805160000361143b5760405162461bcd60e51b815260206004820152601d60248201527f4c7a4170703a206e6f20747275737465642070617468207265636f72640000006044820152606401610aec565b61145660006014835161144e9190613f66565b839190612633565b9392505050565b6000338161146b82866118fb565b9050838110156114cb5760405162461bcd60e51b815260206004820152602560248201527f45524332303a2064656372656173656420616c6c6f77616e63652062656c6f77604482015264207a65726f60d81b6064820152608401610aec565b610ea38286868403611df2565b6000806115558b8b8b8b8b8080601f01602080910402602001604051908101604052809392919081815260200183838082843760009201919091525050604080516020601f8d018190048102820181019092528b81528e93508d9250908c908c908190840183828082843760009201919091525061274092505050565b91509150995099975050505050505050565b61156f611d98565b81813060405160200161158493929190613f79565b60408051601f1981840301815291815261ffff85166000908152600160205220906115af9082613fe5565b507f8c0400cfe2d1199b1a725c78960bcc2a344d869b80590d0f2bd005db15a572ce8383836040516115e393929190613f02565b60405180910390a1505050565b600033610e09818585611f91565b611606611d98565b600480546001600160a01b0319166001600160a01b0383169081179091556040519081527f5db758e995a17ec1ad84bdef7e8c3293a0bd6179bcce400dff5d4c3d87db726b906020015b60405180910390a150565b611663611d98565b6040516332fb62e760e21b81526001600160a01b037f0000000000000000000000000000000000000000000000000000000000000000169063cbed8b9c906116b790889088908890889088906004016140a4565b600060405180830381600087803b1580156116d157600080fd5b505af115801561131d573d6000803e3d6000fd5b61ffff861660009081526005602052604080822090516117089088908890613ea0565b90815260408051602092819003830190206001600160401b038716600090815292529020549050806117885760405162461bcd60e51b815260206004820152602360248201527f4e6f6e626c6f636b696e674c7a4170703a206e6f2073746f726564206d65737360448201526261676560e81b6064820152608401610aec565b808383604051611799929190613ea0565b6040518091039020146117f85760405162461bcd60e51b815260206004820152602160248201527f4e6f6e626c6f636b696e674c7a4170703a20696e76616c6964207061796c6f616044820152601960fa1b6064820152608401610aec565b61ffff8716600090815260056020526040808220905161181b9089908990613ea0565b90815260408051602092819003830181206001600160401b038916600090815290845282902093909355601f880182900482028301820190528682526118b3918991899089908190840183828082843760009201919091525050604080516020601f8a018190048102820181019092528881528a93509150889088908190840183828082843760009201919091525061237892505050565b7fc264d91f3adc5588250e1551f547752ca0cfa8f6b530d243b9f9f4cab10ea8e587878787856040516118ea9594939291906140dd565b60405180910390a150505050505050565b6001600160a01b03918216600090815260096020908152604080832093909416825291909152205490565b61192e611d98565b600081116119765760405162461bcd60e51b81526020600482015260156024820152744c7a4170703a20696e76616c6964206d696e47617360581b6044820152606401610aec565b61ffff83811660008181526002602090815260408083209487168084529482529182902085905581519283528201929092529081018290527f9d5c7c0b934da8fefa9c7760c98383778a12dfbfc0c3b3106518f43fb9508ac0906060016115e3565b6119e0611d98565b6001600160a01b03919091166000908152600d60205260409020805460ff1916911515919091179055565b611a13611d98565b6006805460ff19168215159081179091556040519081527f1584ad594a70cbe1e6515592e1272a987d922b097ead875069cebe8b40c004a490602001611650565b333014611aa35760405162461bcd60e51b815260206004820152601f60248201527f4f4654436f72653a2063616c6c6572206d757374206265204f4654436f7265006044820152606401610aec565b611aae3086866127fb565b9350846001600160a01b03168a61ffff167fbf551ec93859b170f9b2141bd9298bf3f64322c6f7beb2543a0cb669834118bf86604051611af091815260200190565b60405180910390a3604051633fe79aed60e11b81526001600160a01b03861690637fcf35da908390611b34908e908e908e908e908e908d908d908d90600401614118565b600060405180830381600088803b158015611b4e57600080fd5b5087f1158015611b62573d6000803e3d6000fd5b505050505050505050505050505050565b611b7b611d98565b61ffff83166000908152600160205260409020611b99828483614173565b507ffa41487ad5d6728f0b19276fa1eddc16558578f5109fc39d2dc33c3230470dab8383836040516115e393929190613f02565b611bd5611d98565b611bf482611be56012600a614316565b611bef9084614325565b61284d565b5050565b611c00611d98565b6001600160a01b038116611c655760405162461bcd60e51b815260206004820152602660248201527f4f776e61626c653a206e6577206f776e657220697320746865207a65726f206160448201526564647265737360d01b6064820152608401610aec565b610ffb816124e7565b604051633d7b2f6f60e21b815261ffff808616600483015284166024820152306044820152606481018290526060907f00000000000000000000000000000000000000000000000000000000000000006001600160a01b03169063f5ecbdbc90608401600060405180830381865afa158015611cee573d6000803e3d6000fd5b505050506040513d6000823e601f3d908101601f19168201604052611d16919081019061433c565b95945050505050565b600080611d825a60966366ad5c8a60e01b89898989604051602401611d4794939291906143a9565b60408051601f198184030181529190526020810180516001600160e01b03166001600160e01b0319909316929092179091523092919061291a565b91509150816111585761115886868686856129a4565b6000546001600160a01b031633146111dd5760405162461bcd60e51b815260206004820181905260248201527f4f776e61626c653a2063616c6c6572206973206e6f7420746865206f776e65726044820152606401610aec565b6001600160a01b038316611e545760405162461bcd60e51b8152602060048201526024808201527f45524332303a20617070726f76652066726f6d20746865207a65726f206164646044820152637265737360e01b6064820152608401610aec565b6001600160a01b038216611eb55760405162461bcd60e51b815260206004820152602260248201527f45524332303a20617070726f766520746f20746865207a65726f206164647265604482015261737360f01b6064820152608401610aec565b6001600160a01b0383811660008181526009602090815260408083209487168084529482529182902085905590518481527f8c5be1e5ebec7d5bd14f71427d1e84f3dd0314c0f7b2291e5b200ac8c7c3b92591015b60405180910390a3505050565b6000611f2384846118fb565b90506000198114611f8b5781811015611f7e5760405162461bcd60e51b815260206004820152601d60248201527f45524332303a20696e73756666696369656e7420616c6c6f77616e63650000006044820152606401610aec565b611f8b8484848403611df2565b50505050565b6001600160a01b038316611ff55760405162461bcd60e51b815260206004820152602560248201527f45524332303a207472616e736665722066726f6d20746865207a65726f206164604482015264647265737360d81b6064820152608401610aec565b6001600160a01b0382166120575760405162461bcd60e51b815260206004820152602360248201527f45524332303a207472616e7366657220746f20746865207a65726f206164647260448201526265737360e81b6064820152608401610aec565b612062838383612a41565b6001600160a01b038316600090815260086020526040902054818110156120da5760405162461bcd60e51b815260206004820152602660248201527f45524332303a207472616e7366657220616d6f756e7420657863656564732062604482015265616c616e636560d01b6064820152608401610aec565b6001600160a01b0380851660008181526008602052604080822086860390559286168082529083902080548601905591517fddf252ad1be2c89b69c2b068fc378daa952ba7f163c4a11628f55a4df523b3ef9061213a9086815260200190565b60405180910390a3611f8b565b60008060006121958761215988612b09565b6040805160006020820152602181019390935260c09190911b6001600160c01b0319166041830152805160298184030181526049909201905290565b60405163040a7bb160e41b81529091506001600160a01b037f000000000000000000000000000000000000000000000000000000000000000016906340a7bb10906121ec908b90309086908b908b906004016143e7565b6040805180830381865afa158015612208573d6000803e3d6000fd5b505050506040513d601f19601f8201168201806040525081019061222c919061443b565b92509250509550959350505050565b6001600160a01b03821661229b5760405162461bcd60e51b815260206004820152602160248201527f45524332303a206275726e2066726f6d20746865207a65726f206164647265736044820152607360f81b6064820152608401610aec565b6122a782600083612a41565b6001600160a01b0382166000908152600860205260409020548181101561231b5760405162461bcd60e51b815260206004820152602260248201527f45524332303a206275726e20616d6f756e7420657863656564732062616c616e604482015261636560f01b6064820152608401610aec565b6001600160a01b03831660008181526008602090815260408083208686039055600a80548790039055518581529192917fddf252ad1be2c89b69c2b068fc378daa952ba7f163c4a11628f55a4df523b3ef9101611f0a565b505050565b60006123848282612b8f565b905060ff811661239f5761239a85858585612beb565b610df4565b60001960ff8216016123b75761239a85858585612c7b565b60405162461bcd60e51b815260206004820152601c60248201527f4f4654436f72653a20756e6b6e6f776e207061636b65742074797065000000006044820152606401610aec565b600061240d87828481612e89565b61241685612f03565b50905061242588888884612f43565b9050600081116124735760405162461bcd60e51b815260206004820152601960248201527813d19510dbdc994e88185b5bdd5b9d081d1bdbc81cdb585b1b603a1b6044820152606401610aec565b60006124828761215984612b09565b9050612492888287878734612f75565b86896001600160a01b03168961ffff167fd81fc9b8523134ed613870ed029d6170cbb73aa6a6bc311b9a642689fb9df59a856040516124d391815260200190565b60405180910390a450979650505050505050565b600080546001600160a01b038381166001600160a01b0319831681178455604051919092169283917f8be0079c531659141344cd1fd0a4f28419497f9722a3daafe3b4186f6b6457e09190a35050565b600061254f896001846001600160401b038916612e89565b61255887612f03565b5090506125678a8a8a84612f43565b9050600081116125b55760405162461bcd60e51b815260206004820152601960248201527813d19510dbdc994e88185b5bdd5b9d081d1bdbc81cdb585b1b603a1b6044820152606401610aec565b60006125cc338a6125c585612b09565b8a8a61311a565b90506125dc8a8287878734612f75565b888b6001600160a01b03168b61ffff167fd81fc9b8523134ed613870ed029d6170cbb73aa6a6bc311b9a642689fb9df59a8560405161261d91815260200190565b60405180910390a4509998505050505050505050565b60608161264181601f613ec6565b10156126805760405162461bcd60e51b815260206004820152600e60248201526d736c6963655f6f766572666c6f7760901b6044820152606401610aec565b61268a8284613ec6565b845110156126ce5760405162461bcd60e51b8152602060048201526011602482015270736c6963655f6f75744f66426f756e647360781b6044820152606401610aec565b6060821580156126ed5760405191506000825260208201604052612737565b6040519150601f8416801560200281840101858101878315602002848b0101015b8183101561272657805183526020928301920161270e565b5050858452601f01601f1916604052505b50949350505050565b6000806000612753338a6125c58b612b09565b60405163040a7bb160e41b81529091506001600160a01b037f000000000000000000000000000000000000000000000000000000000000000016906340a7bb10906127aa908d90309086908b908b906004016143e7565b6040805180830381865afa1580156127c6573d6000803e3d6000fd5b505050506040513d601f19601f820116820180604052508101906127ea919061443b565b925092505097509795505050505050565b600033306001600160a01b038616148015906128295750806001600160a01b0316856001600160a01b031614155b1561283957612839858285611f17565b612844858585611f91565b50909392505050565b6001600160a01b0382166128a35760405162461bcd60e51b815260206004820152601f60248201527f45524332303a206d696e7420746f20746865207a65726f2061646472657373006044820152606401610aec565b6128af60008383612a41565b80600a60008282546128c19190613ec6565b90915550506001600160a01b0382166000818152600860209081526040808320805486019055518481527fddf252ad1be2c89b69c2b068fc378daa952ba7f163c4a11628f55a4df523b3ef910160405180910390a35050565b6000606060008060008661ffff166001600160401b0381111561293f5761293f6138da565b6040519080825280601f01601f191660200182016040528015612969576020820181803683370190505b50905060008087516020890160008d8df191503d92508683111561298b578692505b828152826000602083013e909890975095505050505050565b8180519060200120600560008761ffff1661ffff168152602001908152602001600020856040516129d5919061445f565b9081526040805191829003602090810183206001600160401b0388166000908152915220919091557fe183f33de2837795525b4792ca4cd60535bd77c53b7e7030060bfcf5734d6b0c90612a32908790879087908790879061447b565b60405180910390a15050505050565b6001600160a01b0383166000908152600d602052604090205460ff16158015612a8357506001600160a01b0382166000908152600d602052604090205460ff16155b15612373576103e8612a94600a5490565b612a9e91906144e3565b81106123735760405162461bcd60e51b815260206004820152603460248201527f43616e2774207472616e7366657220746f6b656e73206d6f7265207468616e20604482015273181718929037b3103a37ba30b629bab838363c9760611b6064820152608401610aec565b600080612b367f0000000000000000000000000000000000000000000000000000000000000000846144e3565b90506001600160401b03811115610cda5760405162461bcd60e51b815260206004820152601a60248201527f4f4654436f72653a20616d6f756e745344206f766572666c6f770000000000006044820152606401610aec565b6000612b9c826001613ec6565b83511015612be25760405162461bcd60e51b8152602060048201526013602482015272746f55696e74385f6f75744f66426f756e647360681b6044820152606401610aec565b50016001015190565b600080612bf78361315b565b90925090506001600160a01b038216612c105761dead91505b6000612c1b826131e0565b9050612c28878483613215565b9050826001600160a01b03168761ffff167fbf551ec93859b170f9b2141bd9298bf3f64322c6f7beb2543a0cb669834118bf83604051612c6a91815260200190565b60405180910390a350505050505050565b6000806000806000612c8c86613228565b945094509450945094506000600760008b61ffff1661ffff16815260200190815260200160002089604051612cc1919061445f565b90815260408051602092819003830190206001600160401b038b166000908152925281205460ff169150612cf4856131e0565b905081612d6257612d068b3083613215565b61ffff8c16600090815260076020526040908190209051919250600191612d2e908d9061445f565b90815260408051602092819003830190206001600160401b038d16600090815292529020805460ff19169115159190911790555b6001600160a01b0386163b612db9576040516001600160a01b03871681527f9aedf5fdba8716db3b6705ca00150643309995d4f818a249ed6dde6677e7792d9060200160405180910390a150505050505050611f8b565b8a8a8a8a8a8a868a60008a612dd7578b6001600160401b0316612dd9565b5a5b9050600080612e0b5a609663eaffd49a60e01b8e8e8e8d8d8d8d8d604051602401611d479897969594939291906144f7565b915091508115612e64578751602089012060405161ffff8d16907fb8890edbfc1c74692f527444645f95489c3703cc2df42e4a366f5d06fa6cd88490612e56908e908e90869061456b565b60405180910390a250612e71565b612e718b8b8b8b856129a4565b50505050505050505050505050505050505050505050565b60065460ff1615612ea557612ea0848484846132df565b611f8b565b815115611f8b5760405162461bcd60e51b815260206004820152602660248201527f4f4654436f72653a205f61646170746572506172616d73206d7573742062652060448201526532b6b83a3c9760d11b6064820152608401610aec565b600080612f307f000000000000000000000000000000000000000000000000000000000000000084614599565b9050612f3c8184613f66565b9150915091565b6000336001600160a01b0386168114612f6157612f61868285611f17565b612f6b868461223b565b5090949350505050565b61ffff861660009081526001602052604081208054612f9390613e6c565b80601f0160208091040260200160405190810160405280929190818152602001828054612fbf90613e6c565b801561300c5780601f10612fe15761010080835404028352916020019161300c565b820191906000526020600020905b815481529060010190602001808311612fef57829003601f168201915b50505050509050805160000361307d5760405162461bcd60e51b815260206004820152603060248201527f4c7a4170703a2064657374696e6174696f6e20636861696e206973206e6f742060448201526f61207472757374656420736f7572636560801b6064820152608401610aec565b6130888787516133be565b60405162c5803160e81b81526001600160a01b037f0000000000000000000000000000000000000000000000000000000000000000169063c58031009084906130df908b9086908c908c908c908c906004016145ad565b6000604051808303818588803b1580156130f857600080fd5b505af115801561310c573d6000803e3d6000fd5b505050505050505050505050565b6060600185856001600160a01b038916858760405160200161314196959493929190614614565b604051602081830303815290604052905095945050505050565b600080806131698482612b8f565b60ff1614801561317a575082516029145b6131c15760405162461bcd60e51b815260206004820152601860248201527713d19510dbdc994e881a5b9d985b1a59081c185e5b1bd85960421b6044820152606401610aec565b6131cc83600d61342f565b91506131d9836021613494565b9050915091565b6000610cda7f00000000000000000000000000000000000000000000000000000000000000006001600160401b038416614325565b6000613221838361284d565b5092915050565b60008080606081600161323b8783612b8f565b60ff16146132865760405162461bcd60e51b815260206004820152601860248201527713d19510dbdc994e881a5b9d985b1a59081c185e5b1bd85960421b6044820152606401610aec565b61329186600d61342f565b935061329e866021613494565b92506132ab8660296134f1565b94506132b8866049613494565b90506132d460518088516132cc9190613f66565b889190612633565b915091939590929450565b60006132ea8361354f565b61ffff80871660009081526002602090815260408083209389168352929052908120549192509061331c908490613ec6565b90506000811161336e5760405162461bcd60e51b815260206004820152601a60248201527f4c7a4170703a206d696e4761734c696d6974206e6f74207365740000000000006044820152606401610aec565b808210156111585760405162461bcd60e51b815260206004820152601b60248201527f4c7a4170703a20676173206c696d697420697320746f6f206c6f7700000000006044820152606401610aec565b61ffff8216600090815260036020526040812054908190036133df57506127105b808211156123735760405162461bcd60e51b815260206004820181905260248201527f4c7a4170703a207061796c6f61642073697a6520697320746f6f206c617267656044820152606401610aec565b600061343c826014613ec6565b835110156134845760405162461bcd60e51b8152602060048201526015602482015274746f416464726573735f6f75744f66426f756e647360581b6044820152606401610aec565b500160200151600160601b900490565b60006134a1826008613ec6565b835110156134e85760405162461bcd60e51b8152602060048201526014602482015273746f55696e7436345f6f75744f66426f756e647360601b6044820152606401610aec565b50016008015190565b60006134fe826020613ec6565b835110156135465760405162461bcd60e51b8152602060048201526015602482015274746f427974657333325f6f75744f66426f756e647360581b6044820152606401610aec565b50016020015190565b60006022825110156135a35760405162461bcd60e51b815260206004820152601c60248201527f4c7a4170703a20696e76616c69642061646170746572506172616d73000000006044820152606401610aec565b506022015190565b803561ffff811681146135bd57600080fd5b919050565b60008083601f8401126135d457600080fd5b5081356001600160401b038111156135eb57600080fd5b60208301915083602082850101111561360357600080fd5b9250929050565b80356001600160401b03811681146135bd57600080fd5b6000806000806000806080878903121561363a57600080fd5b613643876135ab565b955060208701356001600160401b038082111561365f57600080fd5b61366b8a838b016135c2565b909750955085915061367f60408a0161360a565b9450606089013591508082111561369557600080fd5b506136a289828a016135c2565b979a9699509497509295939492505050565b6000602082840312156136c657600080fd5b81356001600160e01b03198116811461145657600080fd5b60005b838110156136f95781810151838201526020016136e1565b50506000910152565b6000815180845261371a8160208601602086016136de565b601f01601f19169290920160200192915050565b6020815260006114566020830184613702565b60006020828403121561375357600080fd5b611456826135ab565b6001600160a01b0381168114610ffb57600080fd5b6000806040838503121561378457600080fd5b823561378f8161375c565b946020939093013593505050565b600080604083850312156137b057600080fd5b61378f836135ab565b6000806000606084860312156137ce57600080fd5b83356137d98161375c565b925060208401356137e98161375c565b929592945050506040919091013590565b803580151581146135bd57600080fd5b60008060008060008060a0878903121561382357600080fd5b61382c876135ab565b95506020870135945060408701359350613848606088016137fa565b925060808701356001600160401b0381111561386357600080fd5b6136a289828a016135c2565b60008060006040848603121561388457600080fd5b61388d846135ab565b925060208401356001600160401b038111156138a857600080fd5b6138b4868287016135c2565b9497909650939450505050565b6000602082840312156138d357600080fd5b5035919050565b634e487b7160e01b600052604160045260246000fd5b604051601f8201601f191681016001600160401b0381118282101715613918576139186138da565b604052919050565b60006001600160401b03821115613939576139396138da565b50601f01601f191660200190565b60008060006060848603121561395c57600080fd5b613965846135ab565b925060208401356001600160401b0381111561398057600080fd5b8401601f8101861361399157600080fd5b80356139a461399f82613920565b6138f0565b8181528760208385010111156139b957600080fd5b816020840160208301376000602083830101528094505050506139de6040850161360a565b90509250925092565b6000606082840312156139f957600080fd5b50919050565b600080600080600060a08688031215613a1757600080fd5b8535613a228161375c565b9450613a30602087016135ab565b9350604086013592506060860135915060808601356001600160401b03811115613a5957600080fd5b613a65888289016139e7565b9150509295509295909350565b600060208284031215613a8457600080fd5b81356114568161375c565b60008060008060008060008060e0898b031215613aab57600080fd5b8835613ab68161375c565b9750613ac460208a016135ab565b9650604089013595506060890135945060808901356001600160401b0380821115613aee57600080fd5b613afa8c838d016135c2565b9096509450849150613b0e60a08c0161360a565b935060c08b0135915080821115613b2457600080fd5b50613b318b828c016139e7565b9150509295985092959890939650565b60008060408385031215613b5457600080fd5b613b5d836135ab565b9150613b6b602084016135ab565b90509250929050565b600080600080600080600080600060e08a8c031215613b9257600080fd5b613b9b8a6135ab565b985060208a0135975060408a0135965060608a01356001600160401b0380821115613bc557600080fd5b613bd18d838e016135c2565b9098509650869150613be560808d0161360a565b9550613bf360a08d016137fa565b945060c08c0135915080821115613c0957600080fd5b50613c168c828d016135c2565b915080935050809150509295985092959850929598565b600080600080600060808688031215613c4557600080fd5b613c4e866135ab565b9450613c5c602087016135ab565b93506040860135925060608601356001600160401b03811115613c7e57600080fd5b613c8a888289016135c2565b969995985093965092949392505050565b60008060408385031215613cae57600080fd5b8235613cb98161375c565b91506020830135613cc98161375c565b809150509250929050565b600080600060608486031215613ce957600080fd5b613cf2846135ab565b9250613d00602085016135ab565b9150604084013590509250925092565b60008060408385031215613d2357600080fd5b8235613d2e8161375c565b9150613b6b602084016137fa565b600060208284031215613d4e57600080fd5b611456826137fa565b6000806000806000806000806000806101008b8d031215613d7757600080fd5b613d808b6135ab565b995060208b01356001600160401b0380821115613d9c57600080fd5b613da88e838f016135c2565b909b509950899150613dbc60408e0161360a565b985060608d0135975060808d01359150613dd58261375c565b90955060a08c0135945060c08c01359080821115613df257600080fd5b50613dff8d828e016135c2565b9150809450508092505060e08b013590509295989b9194979a5092959850565b60008060008060808587031215613e3557600080fd5b613e3e856135ab565b9350613e4c602086016135ab565b92506040850135613e5c8161375c565b9396929550929360600135925050565b600181811c90821680613e8057607f821691505b6020821081036139f957634e487b7160e01b600052602260045260246000fd5b8183823760009101908152919050565b634e487b7160e01b600052601160045260246000fd5b80820180821115610cda57610cda613eb0565b81835281816020850137506000828201602090810191909152601f909101601f19169091010190565b61ffff84168152604060208201526000611d16604083018486613ed9565b6000808335601e19843603018112613f3757600080fd5b8301803591506001600160401b03821115613f5157600080fd5b60200191503681900382131561360357600080fd5b81810381811115610cda57610cda613eb0565b8284823760609190911b6bffffffffffffffffffffffff19169101908152601401919050565b601f82111561237357600081815260208120601f850160051c81016020861015613fc65750805b601f850160051c820191505b8181101561115857828155600101613fd2565b81516001600160401b03811115613ffe57613ffe6138da565b6140128161400c8454613e6c565b84613f9f565b602080601f831160018114614047576000841561402f5750858301515b600019600386901b1c1916600185901b178555611158565b600085815260208120601f198616915b8281101561407657888601518255948401946001909101908401614057565b50858210156140945787850151600019600388901b60f8161c191681555b5050505050600190811b01905550565b600061ffff8088168352808716602084015250846040830152608060608301526140d2608083018486613ed9565b979650505050505050565b61ffff861681526080602082015260006140fb608083018688613ed9565b6001600160401b0394909416604083015250606001529392505050565b61ffff8916815260c06020820152600061413660c08301898b613ed9565b6001600160401b038816604084015286606084015285608084015282810360a0840152614164818587613ed9565b9b9a5050505050505050505050565b6001600160401b0383111561418a5761418a6138da565b61419e836141988354613e6c565b83613f9f565b6000601f8411600181146141d257600085156141ba5750838201355b600019600387901b1c1916600186901b178355610df4565b600083815260209020601f19861690835b8281101561420357868501358255602094850194600190920191016141e3565b50868210156142205760001960f88860031b161c19848701351681555b505060018560011b0183555050505050565b600181815b8085111561426d57816000190482111561425357614253613eb0565b8085161561426057918102915b93841c9390800290614237565b509250929050565b60008261428457506001610cda565b8161429157506000610cda565b81600181146142a757600281146142b1576142cd565b6001915050610cda565b60ff8411156142c2576142c2613eb0565b50506001821b610cda565b5060208310610133831016604e8410600b84101617156142f0575081810a610cda565b6142fa8383614232565b806000190482111561430e5761430e613eb0565b029392505050565b600061145660ff841683614275565b8082028115828204841417610cda57610cda613eb0565b60006020828403121561434e57600080fd5b81516001600160401b0381111561436457600080fd5b8201601f8101841361437557600080fd5b805161438361399f82613920565b81815285602083850101111561439857600080fd5b611d168260208301602086016136de565b61ffff851681526080602082015260006143c66080830186613702565b6001600160401b038516604084015282810360608401526140d28185613702565b61ffff861681526001600160a01b038516602082015260a06040820181905260009061441590830186613702565b8415156060840152828103608084015261442f8185613702565b98975050505050505050565b6000806040838503121561444e57600080fd5b505080516020909101519092909150565b600082516144718184602087016136de565b9190910192915050565b61ffff8616815260a06020820152600061449860a0830187613702565b6001600160401b038616604084015282810360608401526144b98186613702565b9050828103608084015261442f8185613702565b634e487b7160e01b600052601260045260246000fd5b6000826144f2576144f26144cd565b500490565b600061010061ffff8b1683528060208401526145158184018b613702565b6001600160401b038a166040850152606084018990526001600160a01b038816608085015260a0840187905283810360c085015290506145558186613702565b9150508260e08301529998505050505050505050565b60608152600061457e6060830186613702565b6001600160401b039490941660208301525060400152919050565b6000826145a8576145a86144cd565b500690565b61ffff8716815260c0602082015260006145ca60c0830188613702565b82810360408401526145dc8188613702565b6001600160a01b0387811660608601528616608085015283810360a085015290506146078185613702565b9998505050505050505050565b60ff60f81b8760f81b16815285600182015260006001600160401b0360c01b808760c01b166021840152856029840152808560c01b1660498401525082516146638160518501602087016136de565b9190910160510197965050505050505056fea2646970667358221220bc5d2e0649a2550f2eeb9217ff60edd7916044b2da1583ec63777290127d375464736f6c63430008120033",
  "devdoc": {
    "events": {
      "Approval(address,address,uint256)": {
        "details": "Emitted when the allowance of a `spender` for an `owner` is set by a call to {approve}. `value` is the new allowance."
      },
      "ReceiveFromChain(uint16,address,uint256)": {
        "details": "Emitted when `_amount` tokens are received from `_srcChainId` into the `_toAddress` on the local chain. `_nonce` is the inbound nonce."
      },
      "SendToChain(uint16,address,bytes32,uint256)": {
        "details": "Emitted when `_amount` tokens are moved from the `_sender` to (`_dstChainId`, `_toAddress`) `_nonce` is the outbound nonce"
      },
      "Transfer(address,address,uint256)": {
        "details": "Emitted when `value` tokens are moved from one account (`from`) to another (`to`). Note that `value` may be zero."
      }
    },
    "kind": "dev",
    "methods": {
      "allowance(address,address)": {
        "details": "See {IERC20-allowance}."
      },
      "approve(address,uint256)": {
        "details": "See {IERC20-approve}. NOTE: If `amount` is the maximum `uint256`, the allowance is not updated on `transferFrom`. This is semantically equivalent to an infinite approval. Requirements: - `spender` cannot be the zero address."
      },
      "balanceOf(address)": {
        "details": "See {IERC20-balanceOf}."
      },
      "circulatingSupply()": {
        "details": "returns the circulating amount of tokens on current chain"
      },
      "decimals()": {
        "details": "Returns the number of decimals used to get its user representation. For example, if `decimals` equals `2`, a balance of `505` tokens should be displayed to a user as `5.05` (`505 / 10 ** 2`). Tokens usually opt for a value of 18, imitating the relationship between Ether and Wei. This is the default value returned by this function, unless it's overridden. NOTE: This information is only used for _display_ purposes: it in no way affects any of the arithmetic of the contract, including {IERC20-balanceOf} and {IERC20-transfer}."
      },
      "decreaseAllowance(address,uint256)": {
        "details": "Atomically decreases the allowance granted to `spender` by the caller. This is an alternative to {approve} that can be used as a mitigation for problems described in {IERC20-approve}. Emits an {Approval} event indicating the updated allowance. Requirements: - `spender` cannot be the zero address. - `spender` must have allowance for the caller of at least `subtractedValue`."
      },
      "estimateSendFee(uint16,bytes32,uint256,bool,bytes)": {
        "details": "estimate send token `_tokenId` to (`_dstChainId`, `_toAddress`) _dstChainId - L0 defined chain id to send tokens too _toAddress - dynamic bytes array which contains the address to whom you are sending tokens to on the dstChain _amount - amount of the tokens to transfer _useZro - indicates to use zro to pay L0 fees _adapterParam - flexible bytes array to indicate messaging adapter services in L0"
      },
      "increaseAllowance(address,uint256)": {
        "details": "Atomically increases the allowance granted to `spender` by the caller. This is an alternative to {approve} that can be used as a mitigation for problems described in {IERC20-approve}. Emits an {Approval} event indicating the updated allowance. Requirements: - `spender` cannot be the zero address."
      },
      "name()": {
        "details": "Returns the name of the token."
      },
      "owner()": {
        "details": "Returns the address of the current owner."
      },
      "renounceOwnership()": {
        "details": "Leaves the contract without owner. It will not be possible to call `onlyOwner` functions. Can only be called by the current owner. NOTE: Renouncing ownership will leave the contract without an owner, thereby disabling any functionality that is only available to the owner."
      },
      "sendFrom(address,uint16,bytes32,uint256,(address,address,bytes))": {
        "details": "send `_amount` amount of token to (`_dstChainId`, `_toAddress`) from `_from` `_from` the owner of token `_dstChainId` the destination chain identifier `_toAddress` can be any size depending on the `dstChainId`. `_amount` the quantity of tokens in wei `_refundAddress` the address LayerZero refunds if too much message fee is sent `_zroPaymentAddress` set to address(0x0) if not paying in ZRO (LayerZero Token) `_adapterParams` is a flexible bytes array to indicate messaging adapter services"
      },
      "symbol()": {
        "details": "Returns the symbol of the token, usually a shorter version of the name."
      },
      "token()": {
        "details": "returns the address of the ERC20 token"
      },
      "totalSupply()": {
        "details": "See {IERC20-totalSupply}."
      },
      "transfer(address,uint256)": {
        "details": "See {IERC20-transfer}. Requirements: - `to` cannot be the zero address. - the caller must have a balance of at least `amount`."
      },
      "transferFrom(address,address,uint256)": {
        "details": "See {IERC20-transferFrom}. Emits an {Approval} event indicating the updated allowance. This is not required by the EIP. See the note at the beginning of {ERC20}. NOTE: Does not update the allowance if the current allowance is the maximum `uint256`. Requirements: - `from` and `to` cannot be the zero address. - `from` must have a balance of at least `amount`. - the caller must have allowance for ``from``'s tokens of at least `amount`."
      },
      "transferOwnership(address)": {
        "details": "Transfers ownership of the contract to a new account (`newOwner`). Can only be called by the current owner."
      }
    },
    "version": 1
  },
  "userdoc": {
    "kind": "user",
    "methods": {},
    "notice": "Use this contract only on the BASE CHAIN. It locks tokens on source, on outgoing send(), and unlocks tokens when receiving from other chains.",
    "version": 1
  },
  "storageLayout": {
    "storage": [
      {
        "astId": 2915,
        "contract": "contracts/OMNI.sol:OMNI",
        "label": "_owner",
        "offset": 0,
        "slot": "0",
        "type": "t_address"
      },
      {
        "astId": 215,
        "contract": "contracts/OMNI.sol:OMNI",
        "label": "trustedRemoteLookup",
        "offset": 0,
        "slot": "1",
        "type": "t_mapping(t_uint16,t_bytes_storage)"
      },
      {
        "astId": 221,
        "contract": "contracts/OMNI.sol:OMNI",
        "label": "minDstGasLookup",
        "offset": 0,
        "slot": "2",
        "type": "t_mapping(t_uint16,t_mapping(t_uint16,t_uint256))"
      },
      {
        "astId": 225,
        "contract": "contracts/OMNI.sol:OMNI",
        "label": "payloadSizeLimitLookup",
        "offset": 0,
        "slot": "3",
        "type": "t_mapping(t_uint16,t_uint256)"
      },
      {
        "astId": 227,
        "contract": "contracts/OMNI.sol:OMNI",
        "label": "precrime",
        "offset": 0,
        "slot": "4",
        "type": "t_address"
      },
      {
        "astId": 764,
        "contract": "contracts/OMNI.sol:OMNI",
        "label": "failedMessages",
        "offset": 0,
        "slot": "5",
        "type": "t_mapping(t_uint16,t_mapping(t_bytes_memory_ptr,t_mapping(t_uint64,t_bytes32)))"
      },
      {
        "astId": 1313,
        "contract": "contracts/OMNI.sol:OMNI",
        "label": "useCustomAdapterParams",
        "offset": 0,
        "slot": "6",
        "type": "t_bool"
      },
      {
        "astId": 1321,
        "contract": "contracts/OMNI.sol:OMNI",
        "label": "creditedPackets",
        "offset": 0,
        "slot": "7",
        "type": "t_mapping(t_uint16,t_mapping(t_bytes_memory_ptr,t_mapping(t_uint64,t_bool)))"
      },
      {
        "astId": 3036,
        "contract": "contracts/OMNI.sol:OMNI",
        "label": "_balances",
        "offset": 0,
        "slot": "8",
        "type": "t_mapping(t_address,t_uint256)"
      },
      {
        "astId": 3042,
        "contract": "contracts/OMNI.sol:OMNI",
        "label": "_allowances",
        "offset": 0,
        "slot": "9",
        "type": "t_mapping(t_address,t_mapping(t_address,t_uint256))"
      },
      {
        "astId": 3044,
        "contract": "contracts/OMNI.sol:OMNI",
        "label": "_totalSupply",
        "offset": 0,
        "slot": "10",
        "type": "t_uint256"
      },
      {
        "astId": 3046,
        "contract": "contracts/OMNI.sol:OMNI",
        "label": "_name",
        "offset": 0,
        "slot": "11",
        "type": "t_string_storage"
      },
      {
        "astId": 3048,
        "contract": "contracts/OMNI.sol:OMNI",
        "label": "_symbol",
        "offset": 0,
        "slot": "12",
        "type": "t_string_storage"
      },
      {
        "astId": 3778,
        "contract": "contracts/OMNI.sol:OMNI",
        "label": "blackList",
        "offset": 0,
        "slot": "13",
        "type": "t_mapping(t_address,t_bool)"
      }
    ],
    "types": {
      "t_address": {
        "encoding": "inplace",
        "label": "address",
        "numberOfBytes": "20"
      },
      "t_bool": {
        "encoding": "inplace",
        "label": "bool",
        "numberOfBytes": "1"
      },
      "t_bytes32": {
        "encoding": "inplace",
        "label": "bytes32",
        "numberOfBytes": "32"
      },
      "t_bytes_memory_ptr": {
        "encoding": "bytes",
        "label": "bytes",
        "numberOfBytes": "32"
      },
      "t_bytes_storage": {
        "encoding": "bytes",
        "label": "bytes",
        "numberOfBytes": "32"
      },
      "t_mapping(t_address,t_bool)": {
        "encoding": "mapping",
        "key": "t_address",
        "label": "mapping(address => bool)",
        "numberOfBytes": "32",
        "value": "t_bool"
      },
      "t_mapping(t_address,t_mapping(t_address,t_uint256))": {
        "encoding": "mapping",
        "key": "t_address",
        "label": "mapping(address => mapping(address => uint256))",
        "numberOfBytes": "32",
        "value": "t_mapping(t_address,t_uint256)"
      },
      "t_mapping(t_address,t_uint256)": {
        "encoding": "mapping",
        "key": "t_address",
        "label": "mapping(address => uint256)",
        "numberOfBytes": "32",
        "value": "t_uint256"
      },
      "t_mapping(t_bytes_memory_ptr,t_mapping(t_uint64,t_bool))": {
        "encoding": "mapping",
        "key": "t_bytes_memory_ptr",
        "label": "mapping(bytes => mapping(uint64 => bool))",
        "numberOfBytes": "32",
        "value": "t_mapping(t_uint64,t_bool)"
      },
      "t_mapping(t_bytes_memory_ptr,t_mapping(t_uint64,t_bytes32))": {
        "encoding": "mapping",
        "key": "t_bytes_memory_ptr",
        "label": "mapping(bytes => mapping(uint64 => bytes32))",
        "numberOfBytes": "32",
        "value": "t_mapping(t_uint64,t_bytes32)"
      },
      "t_mapping(t_uint16,t_bytes_storage)": {
        "encoding": "mapping",
        "key": "t_uint16",
        "label": "mapping(uint16 => bytes)",
        "numberOfBytes": "32",
        "value": "t_bytes_storage"
      },
      "t_mapping(t_uint16,t_mapping(t_bytes_memory_ptr,t_mapping(t_uint64,t_bool)))": {
        "encoding": "mapping",
        "key": "t_uint16",
        "label": "mapping(uint16 => mapping(bytes => mapping(uint64 => bool)))",
        "numberOfBytes": "32",
        "value": "t_mapping(t_bytes_memory_ptr,t_mapping(t_uint64,t_bool))"
      },
      "t_mapping(t_uint16,t_mapping(t_bytes_memory_ptr,t_mapping(t_uint64,t_bytes32)))": {
        "encoding": "mapping",
        "key": "t_uint16",
        "label": "mapping(uint16 => mapping(bytes => mapping(uint64 => bytes32)))",
        "numberOfBytes": "32",
        "value": "t_mapping(t_bytes_memory_ptr,t_mapping(t_uint64,t_bytes32))"
      },
      "t_mapping(t_uint16,t_mapping(t_uint16,t_uint256))": {
        "encoding": "mapping",
        "key": "t_uint16",
        "label": "mapping(uint16 => mapping(uint16 => uint256))",
        "numberOfBytes": "32",
        "value": "t_mapping(t_uint16,t_uint256)"
      },
      "t_mapping(t_uint16,t_uint256)": {
        "encoding": "mapping",
        "key": "t_uint16",
        "label": "mapping(uint16 => uint256)",
        "numberOfBytes": "32",
        "value": "t_uint256"
      },
      "t_mapping(t_uint64,t_bool)": {
        "encoding": "mapping",
        "key": "t_uint64",
        "label": "mapping(uint64 => bool)",
        "numberOfBytes": "32",
        "value": "t_bool"
      },
      "t_mapping(t_uint64,t_bytes32)": {
        "encoding": "mapping",
        "key": "t_uint64",
        "label": "mapping(uint64 => bytes32)",
        "numberOfBytes": "32",
        "value": "t_bytes32"
      },
      "t_string_storage": {
        "encoding": "bytes",
        "label": "string",
        "numberOfBytes": "32"
      },
      "t_uint16": {
        "encoding": "inplace",
        "label": "uint16",
        "numberOfBytes": "2"
      },
      "t_uint256": {
        "encoding": "inplace",
        "label": "uint256",
        "numberOfBytes": "32"
      },
      "t_uint64": {
        "encoding": "inplace",
        "label": "uint64",
        "numberOfBytes": "8"
      }
    }
  }
}